{
    "contractName": "Auction",
    "abi": [
        {
            "inputs": [
                {
                    "internalType": "address payable",
                    "name": "_beneficiary",
                    "type": "address"
                },
                {
                    "internalType": "uint256",
                    "name": "_minimumBid",
                    "type": "uint256"
                },
                {
                    "internalType": "uint256",
                    "name": "_biddingTime",
                    "type": "uint256"
                }
            ],
            "stateMutability": "nonpayable",
            "type": "constructor"
        },
        {
            "anonymous": false,
            "inputs": [
                {
                    "indexed": false,
                    "internalType": "address",
                    "name": "winner",
                    "type": "address"
                },
                {
                    "indexed": false,
                    "internalType": "uint256",
                    "name": "amount",
                    "type": "uint256"
                }
            ],
            "name": "auctionEnded",
            "type": "event"
        },
        {
            "anonymous": false,
            "inputs": [
                {
                    "indexed": false,
                    "internalType": "address",
                    "name": "bidder",
                    "type": "address"
                },
                {
                    "indexed": false,
                    "internalType": "uint256",
                    "name": "amount",
                    "type": "uint256"
                }
            ],
            "name": "highestBidIncreased",
            "type": "event"
        },
        {
            "inputs": [],
            "name": "auctionEnd",
            "outputs": [],
            "stateMutability": "nonpayable",
            "type": "function"
        },
        {
            "inputs": [],
            "name": "auctionEndTime",
            "outputs": [
                {
                    "internalType": "uint256",
                    "name": "",
                    "type": "uint256"
                }
            ],
            "stateMutability": "view",
            "type": "function"
        },
        {
            "inputs": [],
            "name": "beneficiary",
            "outputs": [
                {
                    "internalType": "address payable",
                    "name": "",
                    "type": "address"
                }
            ],
            "stateMutability": "view",
            "type": "function"
        },
        {
            "inputs": [],
            "name": "bid",
            "outputs": [],
            "stateMutability": "payable",
            "type": "function"
        },
        {
            "inputs": [],
            "name": "highestBidder",
            "outputs": [
                {
                    "internalType": "address",
                    "name": "",
                    "type": "address"
                }
            ],
            "stateMutability": "view",
            "type": "function"
        },
        {
            "inputs": [],
            "name": "highestbid",
            "outputs": [
                {
                    "internalType": "uint256",
                    "name": "",
                    "type": "uint256"
                }
            ],
            "stateMutability": "view",
            "type": "function"
        },
        {
            "inputs": [],
            "name": "minimumBid",
            "outputs": [
                {
                    "internalType": "uint256",
                    "name": "",
                    "type": "uint256"
                }
            ],
            "stateMutability": "view",
            "type": "function"
        },
        {
            "inputs": [],
            "name": "withdraw",
            "outputs": [
                {
                    "internalType": "bool",
                    "name": "",
                    "type": "bool"
                }
            ],
            "stateMutability": "payable",
            "type": "function"
        }
    ],
    "bytecode": "608060405234801561001057600080fd5b5060405161055238038061055283398101604081905261002f91610061565b600080546001600160a01b0319166001600160a01b03851617905561005481426100a4565b60015550600455506100cb565b60008060006060848603121561007657600080fd5b83516001600160a01b038116811461008d57600080fd5b602085015160409095015190969495509392505050565b808201808211156100c557634e487b7160e01b600052601160045260246000fd5b92915050565b610478806100da6000396000f3fe60806040526004361061007b5760003560e01c80633ccfd60b1161004e5780633ccfd60b146101005780634b449cba1461011857806391f901571461012e578063d3a863861461014e57600080fd5b80631998aeef146100805780632a24f46c1461008a57806338af3eed1461009f5780633ad08463146100dc575b600080fd5b610088610164565b005b34801561009657600080fd5b5061008861027f565b3480156100ab57600080fd5b506000546100bf906001600160a01b031681565b6040516001600160a01b0390911681526020015b60405180910390f35b3480156100e857600080fd5b506100f260035481565b6040519081526020016100d3565b6101086103b9565b60405190151581526020016100d3565b34801561012457600080fd5b506100f260015481565b34801561013a57600080fd5b506002546100bf906001600160a01b031681565b34801561015a57600080fd5b506100f260045481565b6001544211156101ab5760405162461bcd60e51b815260206004820152600d60248201526c22a72222a22fa0aaa1aa24a7a760991b60448201526064015b60405180910390fd5b60035434116101ed5760405162461bcd60e51b815260206004820152600e60248201526d0849288be9c9ea8be8a9c9eaa8e960931b60448201526064016101a2565b60035415610228576003546002546001600160a01b03166000908152600660205260408120805490919061022290849061041b565b90915550505b600280546001600160a01b031916339081179091553460038190556040805192835260208301919091527fd8f1dcefca138e7252b01cd1477fab84d8763d9b0c50b16805e3190c1c393a34910160405180910390a1565b6001544210156102d15760405162461bcd60e51b815260206004820152601e60248201527f7468652061756374696f6e20686173206e6f7420656e6465642079657421000060448201526064016101a2565b60055460ff16156103245760405162461bcd60e51b815260206004820152601c60248201527f7468652061756374696f6e20697320616c7265616479206f766572210000000060448201526064016101a2565b6005805460ff19166001179055600254600354604080516001600160a01b03909316835260208301919091527f6e0e2174dbf7b77c08b6f9a2799b9feda84a6d54a5644864582040100a47d4c5910160405180910390a1600080546003546040516001600160a01b039092169281156108fc029290818181858888f193505050501580156103b6573d6000803e3d6000fd5b50565b3360009081526006602052604081205480156103e057336000908152600660205260408120555b604051339082156108fc029083906000818181858888f19350505050610413573360009081526006602052604090208190555b600191505090565b8082018082111561043c57634e487b7160e01b600052601160045260246000fd5b9291505056fea2646970667358221220c8dbbc4cb908c07e7e09dbd8d13578adda1e36f9cb8471e6ec2e5068f1cbad8664736f6c63430008110033",
    "sourcePath": "/home/erfanfi79/Projects/smart-contract/src/contracts/Auction.sol",
    "compiler": {
        "name": "solc",
        "version": "0.8.17+commit.8df45f5f"
    },
    "functionHashes": {
        "auctionEnd()": "2a24f46c",
        "auctionEndTime()": "4b449cba",
        "beneficiary()": "38af3eed",
        "bid()": "1998aeef",
        "highestBidder()": "91f90157",
        "highestbid()": "3ad08463",
        "minimumBid()": "d3a86386",
        "withdraw()": "3ccfd60b"
    },
    "gasEstimates": {
        "creation": {
            "codeDepositCost": "228800",
            "executionCost": "infinite",
            "totalCost": "infinite"
        },
        "external": {
            "auctionEnd()": "infinite",
            "auctionEndTime()": "2317",
            "beneficiary()": "2371",
            "bid()": "82773",
            "highestBidder()": "2370",
            "highestbid()": "2362",
            "minimumBid()": "2361",
            "withdraw()": "infinite"
        }
    }
}